{
  "contractName": "FoodDelivery",
  "abi": [
    {
      "constant": true,
      "inputs": [],
      "name": "customer",
      "outputs": [
        {
          "name": "",
          "type": "address"
        }
      ],
      "payable": false,
      "stateMutability": "view",
      "type": "function"
    },
    {
      "constant": true,
      "inputs": [],
      "name": "owner",
      "outputs": [
        {
          "name": "",
          "type": "address"
        }
      ],
      "payable": false,
      "stateMutability": "view",
      "type": "function"
    },
    {
      "inputs": [],
      "payable": false,
      "stateMutability": "nonpayable",
      "type": "constructor"
    },
    {
      "constant": false,
      "inputs": [
        {
          "name": "food",
          "type": "string"
        }
      ],
      "name": "orderFood",
      "outputs": [],
      "payable": true,
      "stateMutability": "payable",
      "type": "function"
    },
    {
      "constant": false,
      "inputs": [],
      "name": "cancelOrder",
      "outputs": [],
      "payable": false,
      "stateMutability": "nonpayable",
      "type": "function"
    },
    {
      "constant": false,
      "inputs": [],
      "name": "startDelivery",
      "outputs": [],
      "payable": false,
      "stateMutability": "nonpayable",
      "type": "function"
    },
    {
      "constant": false,
      "inputs": [],
      "name": "endDelivery",
      "outputs": [],
      "payable": false,
      "stateMutability": "nonpayable",
      "type": "function"
    },
    {
      "constant": true,
      "inputs": [],
      "name": "getOrderStatus",
      "outputs": [
        {
          "name": "",
          "type": "uint8"
        }
      ],
      "payable": false,
      "stateMutability": "view",
      "type": "function"
    },
    {
      "constant": true,
      "inputs": [],
      "name": "getMenu",
      "outputs": [
        {
          "name": "",
          "type": "string"
        }
      ],
      "payable": false,
      "stateMutability": "pure",
      "type": "function"
    }
  ],
  "bytecode": "0x608060405234801561001057600080fd5b50336000806101000a81548173ffffffffffffffffffffffffffffffffffffffff021916908373ffffffffffffffffffffffffffffffffffffffff16021790555067016345785d8a0000600260405180807f7375736869000000000000000000000000000000000000000000000000000000815250600501905090815260200160405180910390208190555067058d15e176280000600260405180807f66726965645f636869636b656e00000000000000000000000000000000000000815250600d0190509081526020016040518091039020819055506702c68af0bb140000600260405180807f7665676574617269616e5f62757267657200000000000000000000000000000081525060110190509081526020016040518091039020819055506000600360006101000a81548160ff0219169083600281111561015157fe5b021790555061085a806101656000396000f30060806040526004361061008e576000357c0100000000000000000000000000000000000000000000000000000000900463ffffffff1680632804b2c0146100935780635b22d520146100ea5780636a816548146101015780638b384f9f146101185780638da5cb5b146101a85780639c92cb88146101ff578063d81d26ae1461025b578063feac25e014610294575b600080fd5b34801561009f57600080fd5b506100a86102ab565b604051808273ffffffffffffffffffffffffffffffffffffffff1673ffffffffffffffffffffffffffffffffffffffff16815260200191505060405180910390f35b3480156100f657600080fd5b506100ff6102d1565b005b34801561010d57600080fd5b50610116610386565b005b34801561012457600080fd5b5061012d6104bc565b6040518080602001828103825283818151815260200191508051906020019080838360005b8381101561016d578082015181840152602081019050610152565b50505050905090810190601f16801561019a5780820380516001836020036101000a031916815260200191505b509250505060405180910390f35b3480156101b457600080fd5b506101bd61051f565b604051808273ffffffffffffffffffffffffffffffffffffffff1673ffffffffffffffffffffffffffffffffffffffff16815260200191505060405180910390f35b610259600480360381019080803590602001908201803590602001908080601f0160208091040260200160405190810160405280939291908181526020018383808284378201915050505050509192919290505050610544565b005b34801561026757600080fd5b506102706106a1565b6040518082600281111561028057fe5b60ff16815260200191505060405180910390f35b3480156102a057600080fd5b506102a96106b8565b005b600160009054906101000a900473ffffffffffffffffffffffffffffffffffffffff1681565b6000809054906101000a900473ffffffffffffffffffffffffffffffffffffffff1673ffffffffffffffffffffffffffffffffffffffff163373ffffffffffffffffffffffffffffffffffffffff1614151561032c57600080fd5b6001600281111561033957fe5b600360009054906101000a900460ff16600281111561035457fe5b14151561036057600080fd5b6002600360006101000a81548160ff0219169083600281111561037f57fe5b0217905550565b600160009054906101000a900473ffffffffffffffffffffffffffffffffffffffff1673ffffffffffffffffffffffffffffffffffffffff163373ffffffffffffffffffffffffffffffffffffffff161415156103e257600080fd5b600160028111156103ef57fe5b600360009054906101000a900460ff16600281111561040a57fe5b14151561041657600080fd5b600160009054906101000a900473ffffffffffffffffffffffffffffffffffffffff1673ffffffffffffffffffffffffffffffffffffffff166108fc3073ffffffffffffffffffffffffffffffffffffffff16319081150290604051600060405180830381858888f19350505050158015610495573d6000803e3d6000fd5b506000600360006101000a81548160ff021916908360028111156104b557fe5b0217905550565b60608060405190810160405280602781526020017f73757368692c2066726965645f636869636b656e2c207665676574617269616e81526020017f5f62757267657200000000000000000000000000000000000000000000000000815250905090565b6000809054906101000a900473ffffffffffffffffffffffffffffffffffffffff1681565b60006002826040518082805190602001908083835b60208310151561057e5780518252602082019150602081019050602083039250610559565b6001836020036101000a038019825116818451168082178552505050505050905001915050908152602001604051809103902054141515156105bf57600080fd5b6002816040518082805190602001908083835b6020831015156105f757805182526020820191506020810190506020830392506105d2565b6001836020036101000a038019825116818451168082178552505050505050905001915050908152602001604051809103902054341015151561063957600080fd5b33600160006101000a81548173ffffffffffffffffffffffffffffffffffffffff021916908373ffffffffffffffffffffffffffffffffffffffff1602179055506001600360006101000a81548160ff0219169083600281111561069957fe5b021790555050565b6000600360009054906101000a900460ff16905090565b600160009054906101000a900473ffffffffffffffffffffffffffffffffffffffff1673ffffffffffffffffffffffffffffffffffffffff163373ffffffffffffffffffffffffffffffffffffffff1614151561071457600080fd5b60028081111561072057fe5b600360009054906101000a900460ff16600281111561073b57fe5b14151561074757600080fd5b6000809054906101000a900473ffffffffffffffffffffffffffffffffffffffff1673ffffffffffffffffffffffffffffffffffffffff166108fc3073ffffffffffffffffffffffffffffffffffffffff16319081150290604051600060405180830381858888f193505050501580156107c5573d6000803e3d6000fd5b506000600360006101000a81548160ff021916908360028111156107e557fe5b02179055506000600160006101000a81548173ffffffffffffffffffffffffffffffffffffffff021916908373ffffffffffffffffffffffffffffffffffffffff1602179055505600a165627a7a7230582047787f798b6290cab86012f2631f5fb4c2a387d763d18087b45761b515d15d260029",
  "source": "pragma solidity ^0.4.23;\n\ncontract FoodDelivery {\n  address public owner;\n  address public customer;\n  mapping(string => uint) menu;\n  enum OrderingStep { START, ORDERING_FOOD, DELIVERING_FOOD }\n  OrderingStep step;\n\n  constructor() public {\n    owner = msg.sender;\n\n    menu['sushi'] = 0.1 ether;\n    menu['fried_chicken'] = 0.4 ether;\n    menu['vegetarian_burger'] = 0.2 ether;\n\n    step = OrderingStep.START;\n  }\n\n  function orderFood(string food) public payable {\n    require(menu[food] != 0);\n    require(msg.value >= menu[food]);\n\n    customer = msg.sender;\n    step = OrderingStep.ORDERING_FOOD;\n  }\n\n  function cancelOrder() customer_only public {\n    require(step == OrderingStep.ORDERING_FOOD);\n\n    customer.transfer(address(this).balance);\n    step = OrderingStep.START;\n  }\n\n  function startDelivery() restricted public {\n    require(step == OrderingStep.ORDERING_FOOD);\n\n    step = OrderingStep.DELIVERING_FOOD;\n  }\n\n  function endDelivery() customer_only public {\n    require(step == OrderingStep.DELIVERING_FOOD);\n\n    owner.transfer(address(this).balance);\n\n    step = OrderingStep.START;\n    customer = 0x0;\n  }\n\n  function getOrderStatus() view  public returns (OrderingStep) {\n    return step;\n  }\n\n  function getMenu() pure  public returns (string) {\n    return \"sushi, fried_chicken, vegetarian_burger\";\n  }\n\n  modifier restricted() {\n    require(msg.sender == owner);\n    _;\n  }\n\n  modifier customer_only() {\n    require(msg.sender == customer);\n    _;\n  }\n\n}\n\n",
  "sourcePath": "/opt/Code/blockfellows/food-delivery-smart-contract/contracts/FoodDelivery.sol",
  "compiler": {
    "name": "solc",
    "version": "0.4.23+commit.124ca40d.Emscripten.clang"
  },
  "schemaVersion": "2.0.0",
  "updatedAt": "2018-06-28T13:13:44.553Z"
}